{
  "_format": "hh-sol-artifact-1",
  "contractName": "LiquidityPool",
  "sourceName": "contracts/LiquidityPool.sol",
  "abi": [
    {
      "inputs": [
        {
          "internalType": "address",
          "name": "adamTokenAddress",
          "type": "address"
        }
      ],
      "stateMutability": "payable",
      "type": "constructor"
    },
    {
      "anonymous": false,
      "inputs": [
        {
          "indexed": true,
          "internalType": "address",
          "name": "walletAddress",
          "type": "address"
        },
        {
          "indexed": false,
          "internalType": "uint256",
          "name": "amount",
          "type": "uint256"
        },
        {
          "indexed": false,
          "internalType": "string",
          "name": "token",
          "type": "string"
        }
      ],
      "name": "LPUpdated",
      "type": "event"
    },
    {
      "inputs": [],
      "name": "AdamTokenAddress",
      "outputs": [
        {
          "internalType": "address",
          "name": "",
          "type": "address"
        }
      ],
      "stateMutability": "view",
      "type": "function"
    },
    {
      "inputs": [],
      "name": "getAdamPrice",
      "outputs": [
        {
          "internalType": "uint256",
          "name": "",
          "type": "uint256"
        }
      ],
      "stateMutability": "view",
      "type": "function"
    },
    {
      "inputs": [
        {
          "internalType": "address",
          "name": "walletAddress",
          "type": "address"
        }
      ],
      "name": "getAddressADAMAmount",
      "outputs": [
        {
          "internalType": "uint256",
          "name": "",
          "type": "uint256"
        }
      ],
      "stateMutability": "view",
      "type": "function"
    },
    {
      "inputs": [
        {
          "internalType": "address",
          "name": "walletAddress",
          "type": "address"
        }
      ],
      "name": "getAddressETHAmount",
      "outputs": [
        {
          "internalType": "uint256",
          "name": "",
          "type": "uint256"
        }
      ],
      "stateMutability": "view",
      "type": "function"
    },
    {
      "inputs": [],
      "name": "getConstantProduct",
      "outputs": [
        {
          "internalType": "uint256",
          "name": "",
          "type": "uint256"
        }
      ],
      "stateMutability": "view",
      "type": "function"
    },
    {
      "inputs": [],
      "name": "getETHPrice",
      "outputs": [
        {
          "internalType": "uint256",
          "name": "",
          "type": "uint256"
        }
      ],
      "stateMutability": "view",
      "type": "function"
    },
    {
      "inputs": [],
      "name": "getLPADMAmount",
      "outputs": [
        {
          "internalType": "uint256",
          "name": "",
          "type": "uint256"
        }
      ],
      "stateMutability": "view",
      "type": "function"
    },
    {
      "inputs": [],
      "name": "getLPETHAmount",
      "outputs": [
        {
          "internalType": "uint256",
          "name": "",
          "type": "uint256"
        }
      ],
      "stateMutability": "view",
      "type": "function"
    },
    {
      "inputs": [
        {
          "internalType": "address",
          "name": "sender",
          "type": "address"
        },
        {
          "internalType": "uint256",
          "name": "amount",
          "type": "uint256"
        }
      ],
      "name": "initialLiquidityPoolFund",
      "outputs": [],
      "stateMutability": "payable",
      "type": "function"
    },
    {
      "inputs": [
        {
          "internalType": "address",
          "name": "sender",
          "type": "address"
        },
        {
          "internalType": "uint256",
          "name": "ETHAmount",
          "type": "uint256"
        },
        {
          "internalType": "uint256",
          "name": "AdamTokenAmount",
          "type": "uint256"
        }
      ],
      "name": "removeLiquidity",
      "outputs": [],
      "stateMutability": "payable",
      "type": "function"
    },
    {
      "inputs": [
        {
          "internalType": "address",
          "name": "sender",
          "type": "address"
        },
        {
          "internalType": "uint256",
          "name": "amount",
          "type": "uint256"
        }
      ],
      "name": "swapAdamToken",
      "outputs": [],
      "stateMutability": "payable",
      "type": "function"
    },
    {
      "inputs": [],
      "name": "swapETH",
      "outputs": [],
      "stateMutability": "payable",
      "type": "function"
    }
  ],
  "bytecode": "0x60a0604052604051610b02380380610b028339818101604052810190610025919061014d565b806000806101000a81548173ffffffffffffffffffffffffffffffffffffffff021916908373ffffffffffffffffffffffffffffffffffffffff1602179055504760018190555034600460003373ffffffffffffffffffffffffffffffffffffffff1673ffffffffffffffffffffffffffffffffffffffff168152602001908152602001600020819055503373ffffffffffffffffffffffffffffffffffffffff1660808173ffffffffffffffffffffffffffffffffffffffff16815250505061017a565b600080fd5b600073ffffffffffffffffffffffffffffffffffffffff82169050919050565b600061011a826100ef565b9050919050565b61012a8161010f565b811461013557600080fd5b50565b60008151905061014781610121565b92915050565b600060208284031215610163576101626100ea565b5b600061017184828501610138565b91505092915050565b608051610970610192600039600050506109706000f3fe6080604052600436106100a75760003560e01c8063c14b144b11610064578063c14b144b14610190578063c63f6e7b146101bb578063d43dac4a146101f8578063db207aa514610223578063e38192e31461024e578063ff739dab1461026a576100a7565b80636bd68782146100ac578063776bf44b146100e9578063a607a8d914610114578063af735f791461013f578063b458bdaf1461016a578063bd38441114610174575b600080fd5b3480156100b857600080fd5b506100d360048036038101906100ce919061061b565b610286565b6040516100e09190610661565b60405180910390f35b3480156100f557600080fd5b506100fe6102cf565b60405161010b9190610661565b60405180910390f35b34801561012057600080fd5b506101296102d4565b6040516101369190610661565b60405180910390f35b34801561014b57600080fd5b506101546102eb565b6040516101619190610661565b60405180910390f35b6101726102f5565b005b61018e600480360381019061018991906106a8565b6102f7565b005b34801561019c57600080fd5b506101a5610410565b6040516101b29190610661565b60405180910390f35b3480156101c757600080fd5b506101e260048036038101906101dd919061061b565b61041a565b6040516101ef9190610661565b60405180910390f35b34801561020457600080fd5b5061020d610463565b60405161021a91906106f7565b60405180910390f35b34801561022f57600080fd5b50610238610487565b6040516102459190610661565b60405180910390f35b61026860048036038101906102639190610712565b610491565b005b610284600480360381019061027f91906106a8565b610496565b005b6000600460008373ffffffffffffffffffffffffffffffffffffffff1673ffffffffffffffffffffffffffffffffffffffff168152602001908152602001600020549050919050565b600090565b60006001546002546102e691906107c3565b905090565b6000600254905090565b565b60008060009054906101000a900473ffffffffffffffffffffffffffffffffffffffff1690508073ffffffffffffffffffffffffffffffffffffffff166323b872dd8430856040518463ffffffff1660e01b815260040161035a939291906107f4565b6020604051808303816000875af1158015610379573d6000803e3d6000fd5b505050506040513d601f19601f8201168201806040525081019061039d9190610863565b6103a657600080fd5b81600560008573ffffffffffffffffffffffffffffffffffffffff1673ffffffffffffffffffffffffffffffffffffffff1681526020019081526020016000208190555081600260008282546103fc9190610890565b9250508190555061040b6105a0565b505050565b6000600154905090565b6000600560008373ffffffffffffffffffffffffffffffffffffffff1673ffffffffffffffffffffffffffffffffffffffff168152602001908152602001600020549050919050565b60008054906101000a900473ffffffffffffffffffffffffffffffffffffffff1681565b6000600354905090565b505050565b60008060009054906101000a900473ffffffffffffffffffffffffffffffffffffffff1690508073ffffffffffffffffffffffffffffffffffffffff166323b872dd8430856040518463ffffffff1660e01b81526004016104f9939291906107f4565b6020604051808303816000875af1158015610518573d6000803e3d6000fd5b505050506040513d601f19601f8201168201806040525081019061053c9190610863565b61054557600080fd5b81600560008573ffffffffffffffffffffffffffffffffffffffff1673ffffffffffffffffffffffffffffffffffffffff168152602001908152602001600020600082825461059491906108c4565b92505081905550505050565b6001546002546105b091906108f8565b600381905550565b600080fd5b600073ffffffffffffffffffffffffffffffffffffffff82169050919050565b60006105e8826105bd565b9050919050565b6105f8816105dd565b811461060357600080fd5b50565b600081359050610615816105ef565b92915050565b600060208284031215610631576106306105b8565b5b600061063f84828501610606565b91505092915050565b6000819050919050565b61065b81610648565b82525050565b60006020820190506106766000830184610652565b92915050565b61068581610648565b811461069057600080fd5b50565b6000813590506106a28161067c565b92915050565b600080604083850312156106bf576106be6105b8565b5b60006106cd85828601610606565b92505060206106de85828601610693565b9150509250929050565b6106f1816105dd565b82525050565b600060208201905061070c60008301846106e8565b92915050565b60008060006060848603121561072b5761072a6105b8565b5b600061073986828701610606565b935050602061074a86828701610693565b925050604061075b86828701610693565b9150509250925092565b7f4e487b7100000000000000000000000000000000000000000000000000000000600052601260045260246000fd5b7f4e487b7100000000000000000000000000000000000000000000000000000000600052601160045260246000fd5b60006107ce82610648565b91506107d983610648565b9250826107e9576107e8610765565b5b828204905092915050565b600060608201905061080960008301866106e8565b61081660208301856106e8565b6108236040830184610652565b949350505050565b60008115159050919050565b6108408161082b565b811461084b57600080fd5b50565b60008151905061085d81610837565b92915050565b600060208284031215610879576108786105b8565b5b60006108878482850161084e565b91505092915050565b600061089b82610648565b91506108a683610648565b92508282019050808211156108be576108bd610794565b5b92915050565b60006108cf82610648565b91506108da83610648565b92508282039050818111156108f2576108f1610794565b5b92915050565b600061090382610648565b915061090e83610648565b925082820261091c81610648565b9150828204841483151761093357610932610794565b5b509291505056fea2646970667358221220097bbf9af2c555985667b01b4dffa0376b51b3b2adbb4f87929fcab93f763ea564736f6c63430008180033",
  "linkReferences": {},
  "deployedLinkReferences": {}
}